:100000000C9462000C948A000C948A000C948A0070
:100010000C948A000C948A000C948A000C948A0038
:100020000C948A000C948A000C948A000C948A0028
:100030000C948A000C948A000C948A000C948A0018
:100040000C9448010C948A000C94C0030C94F203A5
:100050000C948A000C948A000C948A000C948A00F8
:100060000C948A000C948A00000000080002010031
:100070000003040700000000000000000102040863
:100080001020408001020408102001020408102002
:10009000040404040404040402020202020203032E
:1000A00003030303000000002300260029000000D2
:1000B0000000250028002B0000000000240027007D
:1000C0002A00220411241FBECFEFD8E0DEBFCDBF2F
:1000D00011E0A0E0B1E0E2E2FBE002C005900D9289
:1000E000AA31B107D9F721E0AAE1B1E001C01D9220
:1000F000AC3CB207E1F710E0C4ECD0E004C02297BA
:10010000FE010E948B05C23CD107C9F70E94580529
:100110000C948F050C94000060E0809100010E9417
:10012000190226E040E052EC61E070E08FE291E0DD
:100130000C945E0380911C0190911D01892B31F577
:100140008FE291E00E949402C19709F0A0C081E083
:1001500090E090931D0180931C0110921B0110925E
:100160001A010E949201709325016093240110925C
:10017000210110922001109223011092220162E0CD
:1001800071E08FE291E00E94A30410C08FE291E041
:100190000E949402C09751F410921D0110921C010C
:1001A00064E071E08FE291E00C94A304809100017F
:1001B0000E94520220911E0130911F012817390719
:1001C00071F020911A0130911B012F5F3F4F309346
:1001D0001B0120931A0190931F0180931E010E941E
:1001E00092012091240130912501621B730B683E1E
:1001F0007340C4F080912201909123010196909365
:100200002301809322018091200190912101019688
:10021000909321018093200128513C4F3093250178
:10022000209324018091220190912301C2977CF1B7
:10023000109223011092220166E071E08FE291E0BA
:100240000E94A30460912001709121014AE050E0D6
:100250008FE291E00E944F0568E071E08FE291E04B
:100260000E94A30460911A0170911B014AE050E0C2
:100270008FE291E00E944F05809120019091210131
:100280008033954721F410922101109220010895A6
:100290001F920F920FB60F9211242F933F938F93BB
:1002A0009F93AF93BF938091270190912801A091D4
:1002B0002901B0912A013091260123E0230F2D3727
:1002C00020F40196A11DB11D05C026E8230F02965A
:1002D000A11DB11D20932601809327019093280131
:1002E000A0932901B0932A0180912B0190912C01B8
:1002F000A0912D01B0912E010196A11DB11D8093F9
:100300002B0190932C01A0932D01B0932E01BF914E
:10031000AF919F918F913F912F910F900FBE0F90B2
:100320001F9018953FB7F89480912B0190912C0164
:10033000A0912D01B0912E0126B5A89B05C02F3F9D
:1003400019F00196A11DB11D3FBF6627782F892F97
:100350009A2F620F711D811D911D42E0660F771F5C
:10036000881F991F4A95D1F70895789484B58260C3
:1003700084BD84B5816084BD85B5826085BD85B549
:10038000816085BDEEE6F0E0808181608083E1E8F8
:10039000F0E0108280818260808380818160808330
:1003A000E0E8F0E0808181608083E1EBF0E0808133
:1003B00084608083E0EBF0E0808181608083EAE705
:1003C000F0E080818460808380818260808380818E
:1003D000816080838081806880831092C10008954D
:1003E000833081F028F4813099F08230A1F00895B3
:1003F0008730A9F08830B9F08430D1F48091800042
:100400008F7D03C0809180008F7780938000089556
:1004100084B58F7702C084B58F7D84BD08958091A7
:10042000B0008F7703C08091B0008F7D8093B000C3
:100430000895CF93DF9390E0FC01E458FF4F24919F
:10044000FC01E057FF4F8491882349F190E0880F29
:10045000991FFC01E854FF4FA591B49182559F4F1D
:10046000FC01C591D4919FB7611108C0F8948C919B
:10047000209582238C93888182230AC0623051F4B4
:10048000F8948C91322F309583238C938881822B22
:10049000888304C0F8948C91822B8C939FBFDF914A
:1004A000CF910895CF93DF93282F30E0F901E859D9
:1004B000FF4F8491F901E458FF4FD491F901E057BF
:1004C000FF4FC491CC2391F081110E94F001EC2FD9
:1004D000F0E0EE0FFF1FEC55FF4FA591B4912C916A
:1004E0002D2381E090E021F480E002C080E090E0E4
:1004F000DF91CF910895FC01818D228D90E0805C89
:100500009F4F821B91098F7399270895FC01918D4C
:10051000828D981731F0828DE80FF11D858D90E066
:1005200008958FEF9FEF0895FC01918D828D9817AC
:1005300061F0828DDF01A80FB11D5D968C91928DC7
:100540009F5F9F73928F90E008958FEF9FEF0895C4
:1005500088E194E0892B49F080E090E0892B29F034
:100560000E94180481110C9400000895FC01848DF0
:10057000DF01A80FB11DA35ABF4F2C91848D90E0CD
:1005800001968F739927848FA689B7892C93A089A8
:10059000B1898C9180648C93938D848D981306C05F
:1005A0000288F389E02D80818F7D80830895CF9329
:1005B000DF93EC01888D8823C9F0EA89FB8980816B
:1005C00085FD05C0A889B9898C9186FD0FC00FB63D
:1005D00007FCF5CF808185FFF2CFA889B9898C917E
:1005E00085FFEDCFCE010E94B602E7CFDF91CF911C
:1005F0000895CF92DF92FF920F931F93CF93DF93D3
:100600001F92CDB7DEB76C0181E0D60158968C936E
:1006100058975B969C915B975C968C915C9798132E
:1006200007C05096ED91FC915197808185FD2EC0B9
:10063000F601038D10E00F5F1F4F0F731127F02E8F
:10064000F601848DF81211C00FB607FCF9CFD60160
:100650005096ED91FC915197808185FFF1CFC601B5
:1006600069830E94B6026981EBCF838DE80FF11D8B
:10067000E35AFF4F6083D6015B960C935B975296CB
:10068000ED91FC915397808180620CC0D601569603
:10069000ED91FC91579760835096ED91FC915197A5
:1006A00080818064808381E090E00F90DF91CF9122
:1006B0001F910F91FF90DF90CF900895BF92CF923E
:1006C000DF92EF92FF92CF93DF93EC016A017B01FF
:1006D000B22EE889F98982E08083411581EE5807BE
:1006E00061057105A1F060E079E08DE390E0A7017C
:1006F00096010E946705215031094109510956951B
:10070000479537952795211580E1380798F0E889B6
:10071000F989108260E874E88EE190E0A701960103
:100720000E946705215031094109510956954795A5
:1007300037952795EC85FD853083EE85FF852083F1
:10074000188EEC89FD89B082EA89FB8980818061FD
:100750008083EA89FB89808188608083EA89FB89BC
:10076000808180688083EA89FB8980818F7D808396
:10077000DF91CF91FF90EF90DF90CF90BF900895E1
:100780001F920F920FB60F9211242F938F939F9366
:10079000EF93FF93E0913F01F09140018081E09160
:1007A0004501F091460182FD12C09081809148017F
:1007B0008F5F8F7320914901821751F0E0914801BA
:1007C000F0E0E15DFE4F958F8093480101C080818C
:1007D000FF91EF919F918F912F910F900FBE0F90EE
:1007E0001F9018951F920F920FB60F9211242F93FE
:1007F0003F934F935F936F937F938F939F93AF93A9
:10080000BF93EF93FF938FE291E00E94B602FF91B6
:10081000EF91BF91AF919F918F917F916F915F9178
:100820004F913F912F910F900FBE0F901F901895F1
:100830008FE291E00E947B0221E0892B09F420E005
:10084000822F0895109232011092310188EE93E0C8
:10085000A0E0B0E08093330190933401A093350180
:10086000B09336018EE091E09093300180932F0198
:1008700085EC90E090933C0180933B0184EC90E008
:1008800090933E0180933D0180EC90E09093400175
:1008900080933F0181EC90E090934201809341016D
:1008A00082EC90E0909344018093430186EC90E0C9
:1008B000909346018093450110924801109249019E
:1008C00010924A0110924B010895CF92DF92EF925D
:1008D000FF920F931F93CF93DF937C016A01EB018B
:1008E00000E010E00C151D0571F06991D701ED9144
:1008F000FC910190F081E02DC7010995892B19F039
:100900000F5F1F4FEFCFC801DF91CF911F910F9164
:10091000FF90EF90DF90CF9008956115710581F001
:10092000DB010D900020E9F7AD0141505109461B54
:10093000570BDC01ED91FC910280F381E02D0994CD
:1009400080E090E008950C948D04DC01ED91FC9121
:100950000190F081E02D09948F929F92AF92BF9207
:10096000CF92DF92EF92FF920F931F93CF93DF937B
:10097000CDB7DEB7A1970FB6F894DEBF0FBECDBFDF
:100980007C01C42EE52FCB01D22E19A221E02D151A
:1009900010F02AE0D22E8E010F5D1F4F8D2C912C6E
:1009A000A12CB12C6C2D7E2FA50194010E9467050E
:1009B0008C2DD29E80191124015011098A3014F413
:1009C000805D01C0895CF8018083211531054105F6
:1009D000510521F0C22EE32FCA01E4CFB801C701AF
:1009E0000E948D04A1960FB6F894DEBF0FBECDBF56
:1009F000DF91CF911F910F91FF90EF90DF90CF90FB
:100A0000BF90AF909F908F900895CF92DF92EF921A
:100A1000FF920F931F93CF93DF93EC016A017B0149
:100A20002115310579F4E881F9810190F081E02DFB
:100A3000642FDF91CF911F910F91FF90EF90DF9086
:100A4000CF9009942A303105E9F477FF1AC06DE29E
:100A50000E94A5048C0144275527BA014C195D0951
:100A60006E097F092AE0CE010E94AC04800F911F1D
:100A7000DF91CF911F910F91FF90EF90DF90CF907A
:100A800008952AE0B701A601CE01DF91CF911F9111
:100A90000F91FF90EF90DF90CF900C94AC049A01EF
:100AA000AB01662757FD6095762F0C9405050895D8
:100AB0000E94B5010E9457050E948C00C8EAD2E04E
:100AC0000E949A002097E1F30E94A802F9CFA1E2C8
:100AD0001A2EAA1BBB1BFD010DC0AA1FBB1FEE1FB8
:100AE000FF1FA217B307E407F50720F0A21BB30B03
:100AF000E40BF50B661F771F881F991F1A9469F77F
:100B000060957095809590959B01AC01BD01CF01DA
:100B10000895EE0FFF1F0590F491E02D0994F894CD
:020B2000FFCF05
:100B22000D00530050005400430000000000F90281
:0A0B320065047B0294028602D702DC
:00000001FF
